:020000040800F2
:10000000B02300202D100008891000088B21000863
:1000100089100008891000088910000800000000FD
:10002000000000000000000000000000891000082F
:10003000891000080000000089100008D50200089F
:10004000891000088910000889100008891000082C
:100050008910000889100008512A0008891000083A
:10006000891000088910000889100008891000080C
:1000700089100008891000088910000889100008FC
:1000800089100008891000088910000889100008EC
:1000900089100008891000088910000889100008DC
:1000A00089100008891000088910000889100008CC
:1000B0005D350008891000084D59000889100008B6
:1000C00089100008891000088910000889100008AC
:1000D00089100008E10D000889100008190E0008B9
:1000E000891000088910000889100008891000088C
:1000F000891000088910000889100008891000087C
:100100008910000889100008495E0008891000085D
:10011000510E0008890E000889100008BD03000870
:10012000891000088910000889100008891000084B
:10013000891000088910000889100008891000083B
:10014000891000088910000889100008891000082B
:10015000891000088910000889100008C10E0008E5
:10016000891000088910000889100008891000080B
:1001700089100008891000088910000889100008FB
:10018000891000088910000890B484B000AF0346BD
:100190000A46FB711346BB710023FB60BB7903F079
:1001A00003039B000F2202FA03F3FB601649BB799D
:1001B0009B08DBB21846144ABB799B08DBB20233BA
:1001C00052F82320FB68DB431A40831C41F82320AC
:1001D0000D48BB799B08DBB21C460B4ABB799B08D8
:1001E000DBB2023352F82320F979BB7903F0030321
:1001F0009B0001FA03F31A43A31C40F8232000BF1D
:100200001037BD4690BC70470038014080B483B0C1
:1002100000AF03463960FB7197F90730002B0BDA0A
:100220000D49FB7903F00F03043B3A68D2B2120187
:10023000D2B20B441A7609E0084997F907303A68B8
:10024000D2B21201D2B20B4483F8002300BF0C37A4
:10025000BD4680BC704700BF00ED00E000E100E05B
:1002600080B582B000AF78607B68B3F1807F01D346
:10027000012311E00A4A7B6823F07F43013B53606E
:100280000F214FF0FF30FFF7C1FF054B00229A60AE
:10029000034B07221A60002318460837BD4680BD6D
:1002A00010E000E080B483B000AF78607B684FF46A
:1002B0007A7202FB03F3064A136000BF044B1B680B
:1002C000002BFBD100BF0C37BD4680BC704700BF80
:1002D0007806002080B400AF0D4B1B6801330C4A38
:1002E00013600C4B1B68002B04D00A4B1B68013BAE
:1002F000084A1360084B1B68002B04D0064B1B6890
:10030000013B054A136000BFBD4680BC704700BF7B
:100310007C060020800600207806002080B500AF13
:100320000F4B1B78002B19D1012000F05DFF00BF9F
:1003300000F06CFF0346002BFAD00A4B1B680A4AF8
:10034000A2FB03239B0C1846FFF78AFF0346002BF2
:1003500000D0FEE7024B01221A7000E000BF80BD12
:10036000840600200C05002083DE1B4380B400AF10
:10037000024B1B681846BD4680BC704780060020B3
:1003800080B483B000AF7860034A7B68136000BF1D
:100390000C37BD4680BC70478006002080B500AF9A
:1003A000044B00221A600021034805F072FB00BFD5
:1003B00080BD00BF940600200014004080B500AF4F
:1003C0000121094805F0A7FB0346002B09D00121B4
:1003D000054805F0C9FB054B1B68002B01D000F058
:1003E00007F800BF80BD00BF001400409406002045
:1003F00080B500AF2E4B1B78002B41D12D4B1A88B6
:100400002D4B1A8001F0E5FF03461A46294B1A804E
:100410002A4B1B88002B0CD0294B1B78002B08D1B2
:10042000244B1A88254B1B889A4202D3244B012265
:100430001A70244B1B78002B07D11E4B1B88242BD2
:100440001ED9204B01221A701AE01A4B1A881A4B37
:100450001B889A4203D9174B1B88242B06D81A4BAA
:100460001B8801339AB2184B1A8002E0164B002207
:100470001A80154B1B88012B02D90D4B01221A70D3
:10048000124B1B78002B07D101F0A4FC0346002B74
:1004900002D00E4B01221A700C4B1B78002B05D09A
:1004A000034B1B78002B01D0FFF778FF00BF80BD06
:1004B000B5160020B8160020BA160020BE1600207F
:1004C000B4160020B6160020BC160020B716002077
:1004D00080B58AB000AF7860396000237B6200236A
:1004E0003B620023FB610023BB617B681B8A9BB2DC
:1004F0007B627B6A23F440537B623B68DB881A464D
:100500007B6A13437B627B6A9AB27B681A827B6840
:100510009B899BB27B627B6A23F4B05323F00C036C
:100520007B623B689A883B681B8913439AB23B689D
:100530005B8913439BB21A467B6A13437B627B6AD7
:100540009AB27B689A817B689B8A9BB27B627B6A4A
:1005500023F440737B623B689B891A467B6A134392
:100560007B627B6A9AB27B689A8207F1080318461D
:1005700000F074FE7B68304A934203D07B682F4AB8
:10058000934202D17B693B6201E03B693B627B683D
:100590009B899BB21BB2002B0CDA3A6A13469B0074
:1005A00013449A001A443B681B685B00B2FBF3F3E8
:1005B000FB610BE03A6A13469B0013449A001A440D
:1005C0003B681B689B00B2FBF3F3FB61FB691C4AB1
:1005D000A2FB03235B091B017B627B6A1B0964226C
:1005E00002FB03F3FA69D31ABB617B689B899BB258
:1005F0001BB2002B0CDABB69DB003233104AA2FBC2
:1006000003235B0903F007037A6A13437B620BE061
:10061000BB691B0132330A4AA2FB03235B0903F0C7
:100620000F037A6A13437B627B6A9AB27B681A81F2
:1006300000BF2837BD4680BD0010014000140140B6
:100640001F85EB5180B483B000AF78600B46FB7020
:10065000FB78002B08D07B689B899BB243F4005346
:100660009AB27B689A8107E07B689B899BB223F4EE
:1006700000539AB27B689A8100BF0C37BD4680BC9C
:10068000704780B483B000AF78600B46FB70FB7896
:10069000002B0AD07B689B899BB26FEA43436FEAC9
:1006A00053439AB27B689A8107E07B689B899BB22F
:1006B000C3F30E039AB27B689A8100BF0C37BD4624
:1006C00080BC704780B483B000AF78600B467B80FD
:1006D0007B88C3F308039AB27B689A8000BF0C370B
:1006E000BD4680BC704780B483B000AF78607B6843
:1006F0009B889BB2C3F308039BB218460C37BD46D8
:1007000080BC704780B487B000AF78600B467B80B8
:1007100013467B7000233B610023FB600023BB601A
:1007200000237B617B687B617B88DBB25B09DBB28A
:100730003B617B8803F01F03FB600122FB6802FA28
:1007400003F3BB603B69012B03D17B690C337B61F5
:1007500009E03B69022B03D17B6910337B6102E026
:100760007B6914337B617B78002B06D07B697A69C7
:100770001168BA680A431A6006E07B697A691168F1
:10078000BA68D2430A401A6000BF1C37BD4680BC1D
:10079000704780B485B000AF78600B467B80002343
:1007A000FB737B681B889AB27B8813409BB2002B3B
:1007B00002D00123FB7301E00023FB73FB7B18468F
:1007C0001437BD4680BC704780B487B000AF7860F6
:1007D0000B467B800023FB6000237B610023BB6012
:1007E0000023FB747B88DBB25B09DBB2BB607B88D8
:1007F00003F01F037B6101227B6902FA03F37B6133
:10080000BB68012B07D17B689B899BB21A467B6929
:1008100013407B6111E0BB68022B07D17B681B8A08
:100820009BB21A467B6913407B6106E07B689B8A1A
:100830009BB21A467B6913407B617B881B0A9BB283
:10084000FB600122FB6802FA03F3FB607B681B88F4
:100850009BB21A46FB681340FB607B69002B05D0F6
:10086000FB68002B02D00123FB7401E00023FB7422
:10087000FB7C18461C37BD4680BC704790B589B0DC
:1008800000AF0023FB774FE1FA7FAB491346DB0053
:100890009B1ADB000B4420331B680121184600F033
:1008A00085FDFA7FA4491346DB009B1ADB000B444D
:1008B00030331B680121184600F078FDFA7F9E490D
:1008C0001346DB009B1ADB000B440C331B689B4A6E
:1008D00093420BD0FA7F98491346DB009B1ADB004A
:1008E0000B440C331B68964A93420DD1FA7F924910
:1008F0001346DB009B1ADB000B4404331B68012109
:10090000184600F08FFD0CE0FA7F8B491346DB00A0
:100910009B1ADB000B4404331B680121184600F0CE
:1009200063FDFA7F84491346DB009B1ADB000B440E
:1009300018331868FA7F80491346DB009B1ADB00E6
:100940000B4424331B789CB2FA7F7B491346DB00AF
:100950009B1ADB000B4408331B781A46214601F032
:10096000C3FBFA7F74491346DB009B1ADB000B4480
:1009700028331868FA7F70491346DB009B1ADB00A6
:100980000B4434331B789CB2FA7F6B491346DB006F
:100990009B1ADB000B4408331B781A46214601F0F2
:1009A000A3FB02233B7603237B760023BB76012344
:1009B000FB76FA7F60491346DB009B1ADB000B4491
:1009C0001C331B887B61FA7F5B491346DB009B1A53
:1009D000DB000B4418331B6807F11402114618465C
:1009E00001F0C0FAFA7F54491346DB009B1ADB0082
:1009F0000B442C331B887B61FA7F4F491346DB0085
:100A00009B1ADB000B4428331B6807F114021146C4
:100A1000184601F0A7FAFA7F47491346DB009B1AF4
:100A2000DB000B440C331B6801211846FFF729FE3D
:100A3000FA7F41491346DB009B1ADB000B4410335D
:100A40001B687B6000233B8100237B810023BB81EB
:100A500000233B820C23FB81FA7F37491346DB00DE
:100A60009B1ADB000B440C331B683A1D11461846D9
:100A7000FFF72EFDFA7F30491346DB009B1ADB009F
:100A80000B440C331B6801211846FFF7DBFDFA7F8E
:100A900029491346DB009B1ADB000B440C331B680F
:100AA000012240F225511846FFF72CFEFA7F224919
:100AB0001346DB009B1ADB000B4414331B783B709E
:100AC00000237B700023BB700123FB703B4618465C
:100AD00002F08AFAFA7F1B491346DB009B1ADB00FF
:100AE0000B440D221A70FA7F16491346DB009B1A3D
:100AF000DB000B44323300221A80FA7F114913467F
:100B0000DB009B1ADB000B44343300221A80FA7F8F
:100B10000C491346DB009B1ADB000B4436330022E2
:100B20001A70FB7F0133FB77FB7F002B3FF4ACAEE9
:100B300000BF2437BD4690BD0000002000100140DA
:100B400000140140FC16002080B582B000AF0346BF
:100B50000A46FB711346BB8000BFFA791049134661
:100B6000DB009B1ADB000B440C331B68802118460A
:100B7000FFF70FFE0346002BEFD0FA790849134622
:100B8000DB009B1ADB000B440C331B68BA88114650
:100B90001846FFF797FD00BF0837BD4680BD00BF70
:100BA0000000002080B582B000AF03463960FB71C1
:100BB0001346BB710AE03B681B789AB2FB79114679
:100BC0001846FFF7C1FF3B6801333B603B681B7869
:100BD000002BF0D1BB79012B0AD1FB790A211846F1
:100BE000FFF7B2FFFB790D211846FFF7ADFF1EE0BE
:100BF000BB79022B0AD1FB790D211846FFF7A4FF20
:100C0000FB790A211846FFF79FFF10E0BB79032B01
:100C100005D1FB790A211846FFF796FF07E0BB795B
:100C2000042B04D1FB790D211846FFF78DFF00BF7F
:100C30000837BD4680BD000080B487B000AF0346D2
:100C40003960FB7100237B61FA7924491346DB008C
:100C50009B1ADB000B4434331B887B82FA791F49D3
:100C60001346DB009B1ADB000B4432331B883B82AC
:100C700000237B617A8A3B8A9A4229D01AE0FA796A
:100C8000798A16481346DB009B1ADB0003440B44A9
:100C90001B78FB737B8A01337B827B8A312B01D9E2
:100CA00000237B823A687B691344FA7B1A707B6964
:100CB00001337B617A8A3B8A9A42E0D1FA7907490B
:100CC0001346DB009B1ADB000B4434337A8A1A800C
:100CD0007B6918461C37BD4680BC7047FC16002057
:100CE00090B484B000AF03460A46FB711346BB8044
:100CF000FA7925491346DB009B1ADB000B4432339B
:100D00001B88FB81FA79F989BB88DCB21E4813463F
:100D1000DB009B1ADB0003440B4422461A70FB895C
:100D20000133FB81FB89312B01D90023FB81FA7947
:100D300015491346DB009B1ADB000B443233FA895A
:100D40001A80FA7910491346DB009B1ADB000B442A
:100D500032331988FA790C481346DB009B1ADB0002
:100D6000034434331B88994209D1FA790649134662
:100D7000DB009B1ADB000B44363302221A7000BFE3
:100D80001037BD4690BC7047FC16002080B584B07B
:100D900000AF03460A46FB711346BB800023FB737A
:100DA00015E0FA7B0D491346DB009B1ADB000B4470
:100DB00014331B78FA799A4206D1BA88FB7B114624
:100DC0001846FFF78DFF05E0FB7B0133FB73FB7BD0
:100DD000002BE6D000BF1037BD4680BD00000020CC
:100DE00080B582B000AF40F225510A48FFF7ECFC15
:100DF0000346012B09D10748FFF775FC0346FB802A
:100E0000FB8819462520FFF7C1FF00BF0837BD4604
:100E100080BD00BF0010014080B582B000AF40F23D
:100E200025510A48FFF7D0FC0346012B09D107489A
:100E3000FFF759FC0346FB80FB8819462720FFF784
:100E4000A5FF00BF0837BD4680BD00BF0048004079
:100E500080B582B000AF40F225510A48FFF7B4FCDC
:100E60000346012B09D10748FFF73DFC0346FB80F1
:100E7000FB8819463420FFF789FF00BF0837BD46BD
:100E800080BD00BF004C004080B582B000AF40F292
:100E900025510A48FFF798FC0346012B09D1074862
:100EA000FFF721FC0346FB80FB8819463520FFF73E
:100EB0006DFF00BF0837BD4680BD00BF0050004039
:100EC00080B582B000AF40F225510A48FFF77CFCA4
:100ED0000346012B09D10748FFF705FC0346FB80B9
:100EE000FB8819464720FFF751FF00BF0837BD4672
:100EF00080BD00BF0014014080B582B000AF012169
:100F0000042000F053FA4FF4A0633B6003237B718D
:100F100000233B710023BB710023FB713B46194644
:100F2000214801F01FF80121022000F03FFA1E23A2
:100F30003B6003237B7100233B710023BB710023C3
:100F4000FB713B461946194801F00CF801210420B9
:100F500000F02CFA80233B6003237B7101233B715B
:100F60000023BB710023FB713B461946104800F07B
:100F7000F9FF0121022000F019FA3C233B60032312
:100F80007B7100233B710023BB710223FB713B4645
:100F90001946084800F0E6FF022004F035FC00BFC7
:100FA0000837BD4680BD00BF00000240001002406F
:100FB000000802400004024080B400AF044A044B21
:100FC0005B6983F08003536100BFBD4680BC7047FE
:100FD0000008024080B500AF8021024801F068F8A7
:100FE00000BF80BD0008024080B500AF0D4B1B78EC
:100FF000002B02D0FFF7E0FF12E00B4B1B78092B10
:1010000006D9094B00221A7004F04EFCFFF7E2FFEC
:10101000FFF7D2FF044B1B780133DAB2024B1A7090
:1010200000BF80BD980600209906002080B582B0E0
:1010300000AF104B7B60104B3B6007E03B681A1D14
:101040003A607A68111D796012681A603B680B4A31
:101050009342F3D30A480B494FF000028842B8BFCD
:1010600040F8042BFADB00F035F800BF0837BD4626
:1010700080BD00BF189D00080000002078060020F9
:1010800078060020AC1B002080B400AFFEE7000013
:1010900080B582B000AF0121102000F087F94FF435
:1010A00080733B6003237B7101233B710023BB7181
:1010B0000023FB713B461946054800F053FF4FF4EF
:1010C0008071034801F002F800BF0837BD4680BDBB
:1010D0000010024090B587B004AF8223FB7101F08D
:1010E0005FF800F033F84FF4FA70FFF7DBF84FF4D5
:1010F000FA7002F0B3FE01F03DFA114A042100201B
:1011000001F043FA0023BB713B7919460020FFF739
:1011100093FD3B1D0B4A9342F6D1FB799BB20293A0
:101120004FF000034FF00004CDE900344FF000020F
:10113000054B4FF00000044902F0AEFEE4E700BFAB
:10114000449A0008509A00080000F03F80B582B031
:1011500000AF244A3B4610681860918892799980C4
:101160009A71FFF7DBF801F0C9F94FF4FA70FFF755
:1011700099F801F09BFFFFF781FB01F011FC00F0F3
:1011800039FEFFF7B9FE02F00BFA00F033FE5020F3
:1011900004F0B8FDFFF77CFF01F046F900F0FEFD1A
:1011A0000023FB7117E0FB7907F10802134413F8E1
:1011B000083C4FF44871184601F09AF8FB7907F1A2
:1011C0000802134413F8083C0821184601F0BCF843
:1011D000FB790133FB71FB79062BE4D900BF08379B
:1011E000BD4680BD549A000880B483B000AF03466A
:1011F000FB71054B00221A70034AFB79137000BF84
:101200000C37BD4680BC70470238024080B582B0C2
:1012100000AF00233B600023FB710023BB71312032
:1012200000F03CF90346BB713B6801333B603B680F
:10123000B3F5A06F02D0BB79002BF0D0312000F0C5
:101240002DF90346002B02D00123FB7101E000239E
:10125000FB71FB7918460837BD4680BD80B489B064
:1012600000AF78600023BB6100237B610023FB613A
:1012700002233B610023FB600223BB60474B9B685A
:1012800003F00C03BB61BB69042B07D0082B09D00A
:10129000002B3DD17B68424A1A603DE07B68414AA1
:1012A0001A6039E03D4B5B689B0D03F00103FB6066
:1012B0003A4B5B6803F03F03BB60FB68002B0CD02C
:1012C000384ABB68B2FBF3F3344A52689209C2F35E
:1012D000080202FB03F3FB610BE0314ABB68B2FB7F
:1012E000F3F32E4A52689209C2F3080202FB03F399
:1012F000FB612A4B5B681B0C03F0030301335B00AB
:101300003B61FA693B69B2FBF3F27B681A6003E068
:101310007B68234A1A6000BF204B9B6803F0F003F0
:10132000BB61BB691B09BB611F4ABB6913441B78C6
:10133000DBB27B617B681A687B69DA407B685A6044
:10134000164B9B6803F4E053BB61BB699B0ABB610E
:10135000154ABB6913441B78DBB27B617B685A6812
:101360007B69DA407B689A600C4B9B6803F46043AE
:10137000BB61BB695B0BBB610B4ABB6913441B7848
:10138000DBB27B617B685A687B69DA407B68DA6034
:1013900000BF2437BD4680BC704700BF0038024004
:1013A0000024F40000127A007000002080B483B0A2
:1013B00000AF78600B46FB70FB78002B06D0094924
:1013C000084B1A6B7B6813430B6306E00549054B1A
:1013D0001A6B7B68DB4313400B6300BF0C37BD46C1
:1013E00080BC70470038024080B483B000AF7860A2
:1013F0000B46FB70FB78002B06D00949084B1A6C92
:101400007B6813430B6406E00549054B1A6C7B6847
:10141000DB4313400B6400BF0C37BD4680BC7047F4
:101420000038024080B483B000AF78600B46FB7098
:10143000FB78002B06D00949084B5A6C7B68134394
:101440004B6406E00549054B5A6C7B68DB4313404F
:101450004B6400BF0C37BD4680BC7047003802406B
:1014600080B483B000AF78600B46FB70FB78002B34
:1014700006D00949084B1A6A7B6813430B6206E0E1
:101480000549054B1A6A7B68DB4313400B6200BFBA
:101490000C37BD4680BC70470038024080B487B02E
:1014A00000AF0346FB710023FB6000237B61002338
:1014B000FB74FB795B09DBB2FB60FB68012B03D19A
:1014C000124B1B687B6109E0FB68022B03D10F4BB9
:1014D0001B6F7B6102E00D4B5B6F7B61FB7903F05F
:1014E0001F03FB607A69FB6822FA03F303F0010330
:1014F000002B02D00123FB7401E00023FB74FB7C72
:1015000018461C37BD4680BC704700BF00380240FB
:1015100080B485B000AF786039600023FB600023A1
:10152000FB727B685B68FB60FB6823F0407323F40D
:101530008073FB603B681B791A023B681B6813438E
:10154000FA681343FB607B68FA685A607B689B68A3
:10155000FB60FA68174B1340FB603B681A693B68F5
:10156000DB681A433B689B681A433B685B795B0006
:101570001343FA681343FB607B68FA689A607B68E0
:10158000DB6AFB60FB6823F47003FB603B681B7D38
:10159000013BDAB2FB7A1343FB72FB7A1B05FA6854
:1015A0001343FB607B68FA68DA6200BF1437BD46FC
:1015B00080BC7047FDF7FFC080B485B000AF786095
:1015C0000023FB600E4B5B68FB60FA680D4B134019
:1015D000FB607B681A687B685B681A437B689B6862
:1015E0001A437B68DB681343FA681343FB60044AC1
:1015F000FB68536000BF1437BD4680BC704700BF16
:1016000000230140E030FCFF80B483B000AF78607D
:101610000B46FB70FB78002B06D07B689B6843F081
:1016200001027B689A6005E07B689B6823F00102F9
:101630007B689A6000BF0C37BD4680BC704780B4A1
:1016400085B000AF7860084611461A460346FB7025
:101650000B46BB7013467B700023FB600023BB600E
:10166000FB78092B23D97B68DB68FB60FB78A3F14F
:101670000A0213465B001344072202FA03F3BB601D
:10168000BB68DB43FA681340FB607978FB78A3F111
:101690000A0213465B00134401FA03F3BB60FA68C5
:1016A000BB681343FB607B68FA68DA601EE07B6806
:1016B0001B69FB60FA7813465B001344072202FAA9
:1016C00003F3BB60BB68DB43FA681340FB607978C7
:1016D000FA7813465B00134401FA03F3BB60FA681F
:1016E000BB681343FB607B68FA681A61BB78062B02
:1016F00021D87B685B6BFB60BB785A1E13469B004E
:1017000013441F2202FA03F3BB60BB68DB43FA6891
:101710001340FB60F978BB785A1E13469B001344B4
:1017200001FA03F3BB60FA68BB681343FB607B6894
:10173000FA685A6347E0BB780C2B21D87B681B6B97
:10174000FB60BB78DA1F13469B0013441F2202FA8A
:1017500003F3BB60BB68DB43FA681340FB60F978B6
:10176000BB78DA1F13469B00134401FA03F3BB60F6
:10177000FA68BB681343FB607B68FA681A6322E06F
:101780007B68DB6AFB60BB78A3F10D0213469B000C
:1017900013441F2202FA03F3BB60BB68DB43FA6801
:1017A0001340FB60F978BB78A3F10D0213469B0050
:1017B000134401FA03F3BB60FA68BB681343FB6090
:1017C0007B68FA68DA6200BF1437BD4680BC704798
:1017D00080B483B000AF78607B689B6843F0804240
:1017E0007B689A6000BF0C37BD4680BC704780B4F0
:1017F00083B000AF78607B68DB6C9BB218460C3717
:10180000BD4680BC704780B485B000AF78600B46A1
:10181000FB700023FB737B681A68FB781340002B76
:1018200002D00123FB7301E00023FB73FB7B18460E
:101830001437BD4680BC704780B483B000AF786079
:101840000B46FB707B68FA781A70012318460C3738
:10185000BD4680BC704780B485B000AF7860396009
:101860000023FB600AE07B685A1C7A603A68511CCE
:10187000396012781A70FB680133FB603B681B7893
:10188000002BF0D1FB6818461437BD4680BC70476A
:1018900080B586B000AFF8607A603B600B46FB72A3
:1018A00000237B617B68013B7B603B68092B1DD972
:1018B0003B681D4AA2FB0323DB08F97A7A68F868C3
:1018C000FFF7E6FF78617B69FA681344FB6010E07C
:1018D000FB7A1946F868FFF7AFFFFB680133FB603E
:1018E0007B6901337B617B68013B7B607B68002BFC
:1018F000EEDC39680C4BA3FB0123DA0813469B008E
:1019000013445B00CA1AD3B23033DBB21946F8680D
:10191000FFF792FF02467B6913447B617B6918469F
:101920001837BD4680BD00BFCDCCCCCC80B586B0CD
:1019300000AFF8607A603B600B46FB7200237B616E
:101940003B68002B03DA3B685B423B6101E03B688C
:101950003B617B68013B7B603B69092B1FD93B687E
:10196000002B0CDA3B692E4AA2FB0323DB085B4207
:10197000F97A7A68F868FFF7D9FF78610AE03B697D
:10198000274AA2FB0323DB08F97A7A68F868FFF795
:10199000CDFF78617B69FA681344FB6025E03B6802
:1019A000002B11DA7B68013B7B600DE0FB7A194666
:1019B000F868FFF741FFFB680133FB607B69013387
:1019C0007B617B68013B7B607B68002BEEDC3B68C6
:1019D000002B0ADA2D21F868FFF72EFF02467B69FB
:1019E00013447B61FB680133FB6039690C4BA3FB3B
:1019F0000123DA0813469B0013445B00CA1AD3B2D2
:101A00003033DBB21946F868FFF716FF02467B69F0
:101A100013447B617B6918461837BD4680BD00BF03
:101A2000CDCCCCCC80B588B002AFF8607A601A46D5
:101A30000B46FB721346BB7200237B617B68013B44
:101A40007B603B6A1B09002B20D03B6A1B09BA7ADA
:101A5000F97A009313467A68F868FFF7E3FF0246C5
:101A60007B6913447B617B69FA681344FB6010E077
:101A7000FB7A1946F868FFF7DFFEFB680133FB606D
:101A80007B6901337B617B68013B7B607B68002B5A
:101A9000EEDC3B6A03F00F03092B0BD83B6ADBB289
:101AA00003F00F03DBB23033DBB21946F868FFF7FF
:101AB000C3FE19E0BB7A002B0BD03B6ADBB203F00C
:101AC0000F03DBB23733DBB21946F868FFF7B4FE19
:101AD0000AE03B6ADBB203F00F03DBB25733DBB241
:101AE0001946F868FFF7A8FE7B6901337B617B69C3
:101AF00018461837BD4680BD80B58AB002AFF86081
:101B0000B9607A603B600023BB6100237B61FB68A6
:101B1000002B00F0FC80FB6800221A70F7E07B6865
:101B20001B78252B0BD0FB685A1CFA607A68511C75
:101B3000796012781A707B6901337B61E7E07B681A
:101B400001331B78252B0BD1FB685A1CFA60252228
:101B50001A707B6802337B607B6901337B61D6E05E
:101B60002023FB770023BB777B6801337B607B6896
:101B70001B78302B14D13023FB777B6801337B60DB
:101B80000EE0BB7F1A46920013445B00DAB27B681A
:101B90001B781344DBB2303BBB777B6801337B603F
:101BA0007B681B782F2B03D97B681B78392BE8D9EE
:101BB000BA7F7B6913441A46BB689A4205D9BB6851
:101BC000DAB27B69DBB2D31ABB777B681B78583BF0
:101BD000202B00F28E8001A252F823F0AD1C0008E9
:101BE000F31C0008F31C0008F31C0008F31C000899
:101BF000F31C0008F31C0008F31C0008F31C000889
:101C0000F31C0008F31C0008DD1C0008611C000820
:101C1000F31C0008F31C0008F31C0008F31C000868
:101C2000611C0008F31C0008F31C0008F31C0008EA
:101C3000F31C0008F31C0008F31C0008F31C000848
:101C4000F31C0008F31C0008C91C0008F31C000862
:101C5000791C0008F31C0008F31C0008911C000804
:101C6000B87F3B681A1D3A601B68F97F0246F86826
:101C7000FFF75CFEB8613FE0B87F3B681A1D3A6031
:101C80001B68F97F0246F868FFF702FEB86133E08F
:101C9000B87F3B681A1D3A601B68F97F00930023E8
:101CA0000246F868FFF7BEFEB86125E0B87F3B68E2
:101CB0001A1D3A601B68F97F009301230246F868F9
:101CC000FFF7B0FEB86117E03B681A1D3A601B6869
:101CD0001946F868FFF7BFFDB8610DE03B681A1DB3
:101CE0003A601B68DBB21946F868FFF7A5FDB861DA
:101CF00002E04FF0FF3325E07B6801337B60BB6976
:101D0000FA681344FB607A69BB6913447B617B68A2
:101D10001B78002B04D07A69BB689A42FFF4FFAEAF
:101D20007A69BB689A4203D2FB6800221A7008E005
:101D3000FB68013BFB60FB6800221A707B69013B7A
:101D40007B617B6918462037BD4680BD80B584B075
:101D500000AFF860B9607A607B68BA686421F8689F
:101D6000FFF7CAFE034618461037BD4680BD0EB4C5
:101D700080B585B000AF786007F12003BB60BA681A
:101D8000F9697868FFF7E2FFF860FB6818461437D6
:101D9000BD46BDE8804003B07047000080B582B00A
:101DA00000AF01211020FFF701FB40233B6003231C
:101DB0007B7101233B710023BB710023FB713B4608
:101DC0001946034800F0CEF800BF0837BD4680BD75
:101DD0000010024080B500AF4021054800F04FF9E7
:101DE0000346002B0CBF01230023DBB2184680BD45
:101DF0000010024080B500AF03F0C6FE00BF80BDFA
:101E000090B583B000AF0023BB7100237B7100232A
:101E1000FB7129E0FC79FB79184603F0BDFE03460F
:101E20001A461D4B23F81420FB791B4A32F8133055
:101E30001946FB79194A52F82330994203DBBB79E2
:101E40000133BB710DE0FB79134A32F813301946A8
:101E5000FB79134A52F82330994202DC7B79013333
:101E60007B71FB790133FB71FB79052BD2D9BB79EF
:101E7000042B01D900230AE07B79032B01D903232A
:101E800005E07B79012B01D9022300E001231846EC
:101E90000C37BD4690BD00BF9C160020DC0400201E
:101EA000F404002080B582B000AF0023FB712B4BFF
:101EB0001B78022B16D10023BB710FE0FFF7A0FFA8
:101EC00003467B717B79022B02D07B79032B02D1F5
:101ED000FB790133FB71BB790133BB71BB79052BF6
:101EE000ECD92EE01D4B1B78052B16D10023BB71BE
:101EF0000FE0FFF785FF03463B713B79012B02D0D2
:101F00003B79002B02D1FB790133FB71BB790133A3
:101F1000BB71BB79052BECD913E00023BB710DE03D
:101F2000FFF76EFF03461A460C4B1B789A4202D10C
:101F3000FB790133FB71BB790133BB71BB79052B95
:101F4000EED9FB79022B04D9054B01221A7003F05C
:101F500029FF00BF0837BD4680BD00BFA81B002079
:101F6000A91B002080B487B000AF786039600023DF
:101F70007B6100233B610023FB6000237B6176E0F3
:101F800001227B6902FA03F33B613B681A683B69F3
:101F90001340FB60FA683B699A4265D17B681A6816
:101FA0007B695B00032101FA03F3DB431A407B6882
:101FB0001A607B681A683B681B7919467B695B006D
:101FC00001FA03F31A437B681A603B681B79012B03
:101FD00003D03B681B79022B2ED17B689A687B6902
:101FE0005B00032101FA03F3DB431A407B689A602C
:101FF0007B689A683B685B7919467B695B0001FAEC
:1020000003F31A437B689A607B685A687B699BB2CA
:10201000194601238B40DB431A407B685A607B687A
:102020005B683A68927911467A6992B201FA02F2D3
:1020300092B21A437B685A607B68DA687B699BB20C
:102040005B00032101FA03F3DB431A407B68DA608B
:102050007B68DA683B68DB7919467B695B0001FACB
:1020600003F31A437B68DA607B6901337B617B6928
:102070000F2B85D900BF1C37BD4680BC704780B48C
:1020800085B000AF78600B467B800023FB737B68D4
:102090001A697B881340002B02D00123FB7301E0F7
:1020A0000023FB73FB7B18461437BD4680BC70478A
:1020B00080B483B000AF78600B467B807B687A8801
:1020C0001A8300BF0C37BD4680BC704780B483B014
:1020D00000AF78600B467B807B687A885A8300BFAC
:1020E0000C37BD4680BC704780B485B000AF7860C7
:1020F0000B467B8013467B700023FB600023BB6094
:102100007A787B8803F007039B0002FA03F3FB60F5
:102110007B88DB089BB218467B88DB089BB21A469B
:102120007B68083253F822207B8803F007039B006A
:102130000F2101FA03F3DB4302EA03017B6800F19C
:10214000080243F822107B88DB089BB21A467B68A2
:10215000083253F82220FB681343BB607B88DB08FE
:102160009BB21A467B680832B96843F8221000BF58
:102170001437BD4680BC7047ABBE01E000207047FD
:10218000002A00D0106001207047069801884BF6A5
:10219000AB62914202D1043006907047FEE7000026
:1021A00080B500AF124A124B1B6843F00103136065
:1021B0000F4B00229A600E4A0D4B1B6823F084736C
:1021C00023F4803313600A4B0A4A5A60084A084BCA
:1021D0001B6823F480231360054B0022DA6000F0B3
:1021E0000DF8054B4FF000629A6000BF80BD00BF44
:1021F000003802401030002400ED00E080B483B0CD
:1022000000AF00237B6000233B60354A344B1B68E2
:1022100043F480331360324B1B6803F400333B609C
:102220007B6801337B603B68002B03D17B68B3F58F
:10223000A06FF0D12A4B1B6803F40033002B02D0AF
:1022400001233B6001E000233B603B68012B42D14E
:10225000234A234B1B6C43F080531364214A214BC8
:102260001B6843F4804313601D4A1D4B9B689360B9
:102270001B4A1B4B9B6843F400439360184A184B5E
:102280009B6843F4A0539360154B174A5A60144A55
:10229000134B1B6843F08073136000BF104B1B6827
:1022A00003F00073002BF9D0104B40F205621A6066
:1022B0000B4A0B4B9B6823F003039360084A084BBF
:1022C0009B6843F00203936000BF054B9B6803F0DB
:1022D0000C03082BF9D100BF0C37BD4680BC7047FA
:1022E000003802400070004008544007003C0240A3
:1022F00080B584B000AF03460A46FB711346BB802D
:10230000BB880E4AA2FB0323DB089AB20C4B1A804F
:10231000BB882B3B0B4A82FB0312D210DB17D31A6C
:10232000DBB20133FB73FA7BFB790221184601F023
:1023300017F800BF1037BD4680BD00BFCDCCCCCC58
:102340002005002083BEA02F80B582B000AF0346D9
:102350000A46FB711346BB80BB88102B07D8BB888D
:10236000DAB2FB790121184600F0FAFF05E0FB79AB
:1023700010220121184600F0F3FF00BF0837BD46C8
:1023800080BD000080B582B000AF0346FB71064AF5
:10239000FB791370FB791A460021D02000F0E0FF92
:1023A00000BF0837BD4680BD2205002080B584B03F
:1023B00000AF0346FB710023FB81FB791946D02057
:1023C00000F0D2FE0346FB81FB8918461037BD465C
:1023D00080BD80B582B000AF0023FB800023BB80AE
:1023E000BB887B800023FB8014E0FB88DBB20233D8
:1023F000DBB21846FFF7DAFF03467B807A88BB889A
:102400009A4201D97B88BB80B7F906309BB2013371
:102410009BB2FB80B7F90630072BE6DDBB88184678
:102420000837BD4680BD000080B584B000AF0023F2
:102430007B810023FB8100237B7300233B800023EF
:10244000BB702D4B1B781B2B16D01B20FFF79AFF60
:10245000294B1B781A2B0CD8274B1B78032B08D938
:10246000254B1B78C3F11B03DB001846FDF71AFF51
:1024700002E0C820FDF716FF1F4B1B221A7021E057
:102480001D4B1B781846FFF77DFF49F64040FDF7CE
:1024900077FF0CE0FFF79DFF03467B817A89FB897C
:1024A0009A4204D97B89FB81134B1B787B73FDF720
:1024B0005DFF0346002BEDD10F4B1B78013BDAB2D9
:1024C0000D4B1A700C4B1B78032BD9D87B7B18460D
:1024D000FFF758FFFB893B807B7BBB703B687B60D1
:1024E0000023BA8862F30F03FA8862F31F43184689
:1024F0001037BD4680BD00BF2205002080B582B0E8
:1025000000AF00F061F8194800F03BFA00F002F962
:10251000282000F033F9062000F030F90C2000F0FC
:102520002DF9012000F02AF94CF2503000F029FA80
:1025300001211020FEF73AFF4FF400733B600323A4
:102540007B7101233B710023BB710023FB713B4670
:1025500019460748FFF706FD4FF400710448FFF7DE
:10256000B5FD00BF0837BD4680BD00BF400D03006C
:102570000010024080B500AF012000F0FFF84CF2DF
:10258000503000F0FEF900BF80BD80B582B000AFD2
:1025900003463A60FB710B46BB71BA79FB79114671
:1025A000184600F0C9F907E03B681B78184600F0B0
:1025B00054F93B6801333B603B681B78002BF3D137
:1025C00000BF0837BD4680BD80B584B000AF002392
:1025D000FB7343E0FA7B254913469B0013449B00A1
:1025E0000B440C331B6801211846FEF7DFFEFA7B13
:1025F0001E4913469B0013449B000B4408331B8861
:102600007B6001233B720023BB720123FB72022318
:102610007B72FA7B154913469B0013449B000B44C5
:1026200004331B683A1D11461846FFF79BFCFA7BE2
:102630000E4913469B0013449B000B4410331B7838
:10264000002B04D1FB7B184600F012F803E0FB7B63
:10265000184600F02DF8FB7B0133FB73FB7B052B49
:10266000B8D900BF1037BD4680BD00BF2805002087
:1026700080B483B000AF0346FB71FA790B4913466F
:102680009B0013449B000B4404331968FA790748F4
:1026900013469B0013449B00034408331B884B8361
:1026A00000BF0C37BD4680BC704700BF2805002026
:1026B00080B483B000AF0346FB71FA790B4913462F
:1026C0009B0013449B000B4404331968FA790748B4
:1026D00013469B0013449B00034408331B880B8361
:1026E00000BF0C37BD4680BC704700BF28050020E6
:1026F00080B500AF0120FFF7DBFF4FF47A7000F0E8
:1027000040F90120FFF7B4FF4FF47A7000F039F977
:1027100000BF80BD80B500AF0220FFF7C9FF0320D6
:10272000FFF7C6FF0420FFF7A3FF0520FFF7A0FF78
:10273000FFF7DEFF4CF2503000F023F9FFF7D8FF2F
:102740004CF2503000F01DF9FFF7D2FF4CF2503040
:1027500000F017F90220FFF78BFF0320FFF7A8FF17
:102760000420FFF785FF0520FFF782FFFFF7C0FF7A
:102770004CF2503000F005F900BF80BD80B582B04A
:1027800000AF0346FB710020FFF772FF97F9073097
:10279000002B03DA0520FFF78BFF02E00520FFF78F
:1027A00067FFFB7903F04003002B03D00420FFF701
:1027B0007FFF02E00420FFF75BFFFB7903F02003BB
:1027C000002B03D00320FFF773FF02E00320FFF785
:1027D0004FFFFB7903F01003002B03D00220FFF71B
:1027E00067FF02E00220FFF743FFFFF781FFFB795D
:1027F00003F00803002B03D00520FFF759FF02E088
:102800000520FFF735FFFB7903F00403002B03D00D
:102810000420FFF74DFF02E00420FFF729FFFB79BA
:1028200003F00203002B03D00320FFF741FF02E077
:102830000320FFF71DFFFB7903F00103002B03D0FA
:102840000220FFF735FF02E00220FFF711FFFFF73C
:102850004FFF00BF0837BD4680BD80B582B000AFD6
:102860000346FB710020FFF723FF97F90730002B89
:1028700003DA0520FFF71CFF02E00520FFF7F8FE52
:10288000FB7903F04003002B03D00420FFF710FF77
:1028900002E00420FFF7ECFEFB7903F02003002B9D
:1028A00003D00320FFF704FF02E00320FFF7E0FE60
:1028B000FB7903F01003002B03D00220FFF7F8FE92
:1028C00002E00220FFF7D4FEFFF712FFFB7903F0CE
:1028D0000803002B03D00520FFF7EAFE02E00520E5
:1028E000FFF7C6FEFB7903F00403002B03D004209E
:1028F000FFF7DEFE02E00420FFF7BAFEFB7903F0EB
:102900000203002B03D00320FFF7D2FE02E00320D6
:10291000FFF7AEFEFB7903F00103002B03D002208A
:10292000FFF7C6FE02E00220FFF7A2FEFFF7E0FE7F
:1029300000BF0837BD4680BD80B584B000AF0346F8
:102940000A46FB711346BB71FB790F2B01D900239B
:10295000FB71BB79012B01D90023BB71BB799B01B2
:10296000FB73FA7BFB791343FB73FB7B63F07F0301
:10297000FB73FB7B1846FFF701FF00BF1037BD4616
:1029800080BD80B483B000AF786000BF7B685A1E02
:102990007A60002BFAD100BF0C37BD4680BC70476F
:1029A00080B586B000AF1F4B9B6801211846FEF72B
:1029B000FDFC00233B751B4B5B7BFB75194B9B8818
:1029C0003B61184B1B6807F1100211461846FFF7D0
:1029D000C9FA01214FF48040FEF724FD114B1B7B07
:1029E00000211846FDF7D0FB0123BB6000233B7399
:1029F0000C4B9B7B7B730123BB7307F108031846C9
:102A000000F04EFA06233B7101237B710123BB7159
:102A10000123FB713B1D184600F0E6FA00BF183792
:102A2000BD4680BDA005002080B400AF00BFBD46FC
:102A300080BC704780B400AF044B1B780133DAB21E
:102A4000024B1A7000BFBD4680BC7047CC160020F8
:102A500080B582B000AF012000F094FA0346002B4D
:102A600014D0012000F0B2FA0A4B1A68094B9B8877
:102A700019461046FFF703FB03467B607B68002B7B
:102A800002D1FFF7D1FF01E0FFF7D4FF00BF083705
:102A9000BD4680BDA005002080B582B000AF786043
:102AA0007B68174A93420AD101214FF40010FEF7C8
:102AB000D7FC00214FF40010FEF7D2FC1CE07B682D
:102AC000104A93420AD101214FF48000FEF7C8FC5E
:102AD00000214FF48000FEF7C3FC0DE07B680A4A3A
:102AE000934209D101214FF40000FEF7B9FC002107
:102AF0004FF40000FEF7B4FC00BF0837BD4680BDB0
:102B00000054004000580040005C004080B58AB08E
:102B100000AF786039600023FB8400237B840423AA
:102B2000BB84574BFB617B689B88FB84FB8C23F049
:102B30003F03FB8407F10C031846FEF78FFB7B690C
:102B4000FB61FB694F4AA2FB03239B0C7B84FA8C3D
:102B50007B8C1343FB847B68FA8C9A807B681B8890
:102B60009BB223F001039AB27B681A800023FB8496
:102B70003B681B68444A934215D83B681B685B005E
:102B8000FA69B2FBF3F3BB84BB8C032B01D804239B
:102B9000BB84FA8CBB8C1343FB847B8C01339AB2CD
:102BA0007B681A8440E03B68DB884BF6FF729342F7
:102BB00009D13B681A6813465B001344FA69B2FBFB
:102BC000F3F3BB840EE03B681A6813469B00134482
:102BD0009A001344FA69B2FBF3F3BB84BB8C43F451
:102BE0008043BB84BB8CC3F30B03002B03D1BB8C92
:102BF00043F00103BB84BA8CFB8C13439BB26FEA96
:102C000043436FEA5343FB847B8C4FF4967202FB81
:102C100003F31E4A82FB03129211DB17D31A9BB2F5
:102C200001339AB27B681A847B68FA8C9A837B683A
:102C30001B889BB243F001039AB27B681A807B68C1
:102C40001B88FB84FB8C23F4816323F00203FB8449
:102C50003B689A883B685B8913439AB2FB8C1343A9
:102C6000FB847B68FA8C1A803B689A893B681B89D5
:102C700013439AB27B681A8100BF2837BD4680BDD6
:102C800000127A0083DE1B43A0860100D34D621040
:102C900080B483B000AF78600B46FB70FB78002BEC
:102CA00008D07B681B889BB243F001039AB27B6813
:102CB0001A8007E07B681B889BB223F001039AB25D
:102CC0007B681A8000BF0C37BD4680BC704780B45B
:102CD00083B000AF78600B46FB70FB78002B08D008
:102CE0007B681B889BB243F480739AB27B681A801E
:102CF00007E07B681B889BB223F480739AB27B68E1
:102D00001A8000BF0C37BD4680BC704780B483B0CA
:102D100000AF78600B46FB70FB78002B08D07B6817
:102D20001B889BB243F400739AB27B681A8007E059
:102D30007B681B889BB223F400739AB27B681A806D
:102D400000BF0C37BD4680BC704780B483B000AF75
:102D500078600B46FB701346BB70BB78002B04D029
:102D6000FB7843F00103FB7003E0FB7823F00103E1
:102D7000FB70FB789AB27B681A8200BF0C37BD46A5
:102D800080BC704780B483B000AF78600B46FB70A6
:102D9000FB78002B08D07B681B889BB243F48063D0
:102DA0009AB27B681A8007E07B681B889BB223F489
:102DB00080639AB27B681A8000BF0C37BD4680BC26
:102DC000704780B483B000AF78600B46FB70FB782F
:102DD000002B0AD07B681B889BB26FEA43436FEAE3
:102DE00053439AB27B681A8007E07B681B889BB2CA
:102DF000C3F30E039AB27B681A8000BF0C37BD463E
:102E000080BC704780B483B000AF78600B46FB7025
:102E1000FB789AB27B681A8200BF0C37BD4680BC33
:102E2000704780B483B000AF78607B681B8A9BB228
:102E3000DBB218460C37BD4680BC704780B487B003
:102E400000AF786039600023FB7500233B610023ED
:102E5000FB607B68FB603B681B0F3B613B6823F0BA
:102E60007F433B603B69002B03D0FB681433FB605E
:102E700005E03B681B0C3B60FB681833FB60FB689C
:102E80001A683B681340002B02D00123FB7501E058
:102E90000023FB75FB7D18461C37BD4680BC704780
:102EA00080B485B000AF78600023FB60344BFB60DA
:102EB0007B689B79002B4FD03149314B1A687B6876
:102EC0001B68DB4313400B602D492D4B5A687B6810
:102ED0001B68DB4313404B607B681B791A46FB6819
:102EE0001344FB60FB68FA6811687A6812680A4349
:102EF0001A602349224B9A687B681B68DB431340A6
:102F00008B601F491E4BDA687B681B68DB431340EC
:102F1000CB607B685B79102B0ED11949184B9A68EE
:102F20007B681B6813438B601549154BDA687B6817
:102F30001B681343CB601DE0114BFB607B685B7922
:102F40001A46FB681344FB60FB68FA6811687A68EC
:102F500012680A431A600DE07B681B791A46FB6809
:102F60001344FB60FB68FA6811687A681268D24300
:102F70000A401A6000BF1437BD4680BC704700BFCE
:102F8000003C014080B485B000AF78600023FB7343
:102F90000023BB600C4B1A687B681340BB600A4B74
:102FA0005A697B681340002B05D0BB68002B02D008
:102FB0000123FB7301E00023FB73FB7B18461437EE
:102FC000BD4680BC704700BF003C014080B483B068
:102FD00000AF7860034A7B68536100BF0C37BD4681
:102FE00080BC7047003C014080B485B000AF786081
:102FF0000023FB730023BB730F237B737B68DB7899
:10300000002B39D0274BDB68DB431B0ADBB203F014
:103010000703FB73FB7BC3F10403BB737A7BFB7B6E
:1030200042FA03F37B737B685B781A46BB7B02FA38
:1030300003F3FB737B689A787B7B1340DAB2FB7BEC
:103040001343FB73FB7B1B01FB73174A7B681B78E5
:103050001344FA7B83F80023134A7B681B785B09CF
:10306000DBB218467B681B7803F01F03012101FACD
:1030700003F342F820300FE00B497B681B785B09B3
:10308000DBB218467B681B7803F01F0301229A40CD
:1030900000F1200341F8232000BF1437BD4680BC57
:1030A000704700BF00ED00E000E100E080B582B0B5
:1030B00000AF2B4B1B78002B4ED101214FF4800029
:1030C000FEF792F9274B9B6801211846FEF76EF92F
:1030D000244B9B6901211846FEF768F901214FF442
:1030E0008000FEF7BDF900214FF48000FEF7B8F92B
:1030F0001C4B18681B4B1B7B9BB204221946FEF726
:10310000F3FF184B1869174B1B7F9BB2042219461B
:10311000FEF7EAFF02233B7102237B710123BB719F
:103120000023FB710F4B9B883B600E4B1B683A469C
:1031300011461846FEF716FF0A4B9B8A3B60094B67
:103140001B693A4611461846FEF70CFF00F0C2F91B
:10315000034B01221A7000E000BF0837BD4680BD56
:10316000CD160020B005002080B584B000AF034626
:103170000A46FB711346BB7100237B814FF4405319
:10318000FB6001217048FFF7A2FD4FF44053FB6044
:103190000CE0FB68002B03D0FB68013BFB6005E003
:1031A0004FF0FF3000F0BAF90346C9E067496648BE
:1031B000FFF744FE0346002BEBD000216248FFF7E7
:1031C000E1FDFB79002219465F48FFF7BEFD4FF491
:1031D0004053FB600CE0FB68002B03D0FB68013B15
:1031E000FB6005E06FF0010000F098F90346A7E0EE
:1031F00057495548FFF722FE0346002BEBD0524BB0
:103200001B8B4FF44053FB600CE0FB68002B03D09A
:10321000FB68013BFB6005E06FF0020000F07EF907
:1032200003468DE04B494848FFF708FE0346002B54
:10323000EBD0BB7919464448FFF7E4FD4FF4405307
:10324000FB600CE0FB68002B03D0FB68013BFB60DC
:1032500005E06FF0030000F061F9034670E03D49BE
:103260003948FFF7EBFD0346002BEBD03A493648CF
:10327000FFF7E4FD0346002BE4D001213248FFF7BD
:1032800026FD4FF44053FB600CE0FB68002B03D09D
:10329000FB68013BFB6005E06FF0040000F03EF9C5
:1032A00003464DE029492848FFF7C8FD0346002B97
:1032B000EBD0FB79012219462348FFF746FD4FF476
:1032C0004053FB600CE0FB68002B03D0FB68013B24
:1032D000FB6005E06FF0050000F020F903462FE0E9
:1032E0001B491948FFF7AAFD0346002BEBD0164BEC
:1032F0001B8B4FF44053FB600CE0FB68002B03D0AA
:10330000FB68013BFB6005E06FF0060000F006F98A
:10331000034615E011490C48FFF790FD0346002BCA
:10332000EBD001210848FFF7F1FC0748FFF779FDD2
:1033300003467B8101210448FFF724FDB7F90A30D9
:1033400018461037BD4680BD0058004001000010EF
:103350000200001080000010040000104000001067
:1033600080B584B000AF0346FB710B46BB711346BA
:103370007B7100237B814FF44053FB600121504857
:10338000FFF7A5FC4FF44053FB600CE0FB68002BFB
:1033900003D0FB68013BFB6005E04FF0FF3000F01D
:1033A000BDF8034687E047494548FFF747FD034618
:1033B000002BEBD0FB79002219464148FFF7C5FCF2
:1033C0004FF44053FB600CE0FB68002B03D0FB681C
:1033D000013BFB6005E06FF0010000F09FF8034641
:1033E00069E039493648FFF729FD0346002BEBD049
:1033F000334B1B8B4FF44053FB600CE0FB68002BFE
:1034000003D0FB68013BFB6005E06FF0020000F0B9
:1034100085F803464FE02D492948FFF70FFD034685
:10342000002BEBD0BB7919462548FFF7EBFC4FF496
:103430004053FB600CE0FB68002B03D0FB68013BB2
:10344000FB6005E06FF0030000F068F8034632E02F
:103450001E491B48FFF7F2FC0346002BEBD07B799B
:1034600019461748FFF7CEFC4FF44053FB600CE0C1
:10347000FB68002B03D0FB68013BFB6005E06FF0AD
:10348000040000F04BF8034615E010490C48FFF724
:10349000D5FC0346002BEBD00D490948FFF7CEFCC5
:1034A0000346002BE4D001210548FFF72FFC002341
:1034B0007B81B7F90A3018461037BD4680BD00BF82
:1034C00000580040010000100200001080000010B1
:1034D0000400001080B584B000AF0023BB804BF621
:1034E000FF73FB8000233B814FF480637B814FF4AB
:1034F0008043BB81074B3B6001210748FFF7C8FBB6
:103500003B4619460448FFF701FB00BF1037BD4694
:1035100080BD00BFA08601000058004080B584B087
:1035200000AF0346FB80FB88FB8101210A48FFF7BF
:10353000EDFB01210848FFF744FC00210648FFF796
:1035400040FC0548FFF7A8FAFFF7C4FFB7F90E30B3
:1035500018461037BD4680BD0058004080B500AF0A
:1035600001214FF0804002F0D6FA0346002B0AD02A
:1035700001214FF0804002F0F7FA044B1B68002B4A
:1035800001D000F005F800BF80BD00BFD0160020BC
:1035900080B400AF00BFBD4680BC70470000000093
:1035A000F0B482B000AF9CA6D6E90056C7E9005639
:1035B000A74800250570A648D7E90056C0E902567D
:1035C000A348D7E90056C0E90456A1484FF00005CA
:1035D000A04EC0E906569E48002580F820509C4821
:1035E0004FF000059C4EC0E90A5699484FF000057F
:1035F0009A4EC0E90C5696484FF00005974EC0E928
:103600000E56934886A6D6E90056C0E91056904853
:10361000012580F850508E484FF00005904EC0E9CB
:1036200016568B484FF000058E4EC0E91856884854
:103630004FF000058B4EC0E91A5685487AA6D6E9A8
:103640000056C0E91C568248032580F88050804807
:103650004FF00005844EC0E922567D484FF000052A
:10366000804EC0E924567A484FF000057D4EC0E9EF
:10367000265677486CA6D6E90056C0E92856744805
:10368000012580F8B05072484FF00005774EC0E930
:103690002E566F4866A6D6E90056C0E930566C48EB
:1036A0004FF00005724EC0E932566948042580F893
:1036B000D05067484FF00005674EC0E93656644861
:1036C0004FF000056B4EC0E9385661484FF00005D9
:1036D000694EC0E93A565E4857A6D6E90056C0E999
:1036E0003C565B48052580F80051594800F5847028
:1036F0004FF000055A4EC0E90056554800F5887055
:103700004FF00005574EC0E90056514800F58C7047
:103710004FF00005534EC0E900564D4800F590703B
:1037200047A6D6E90056C0E900564948062580F864
:103730003051474800F59C704FF000054A4EC0E9F3
:103740000056434800F5A0704FF00005454EC0E913
:1037500000563F4800F5A4704FF00005414EC0E907
:1037600000563B4800F5A8702FA6D6E90056C0E9E0
:1037700000563748022580F86051354800F5B4708E
:10378000D7E90056C0E900563968786880F00042F1
:103790002F4800F5B870C0E900122D4A02F5BC7040
:1037A00023A2D2E90012C0E90012294A082182F8B6
:1037B0008011274A02F5C4704FF00001264AC0E983
:1037C0000012234A02F5C8704FF00001234AC0E9F5
:1037D00000121F4A02F5CC704FF000011F4AC0E9E9
:1037E00000121B4A02F5D07017A2D2E90012C0E9FC
:1037F0000012174A092182F8B011154A02F5DC704F
:103800004FF00001164AC0E90012114A02F5E070BB
:103810004FF00001134A31E0C00A1F00C6481C40A7
:1038200000000000002C96400000000000F49640CC
:103830009A9999999999C9BF0000000000BC9740D6
:103840000000000000F896400000000000E49740EF
:10385000601900200000F0BF0000104000804640CA
:103860000000184000805640000026400000244020
:103870000000E0BF0000444000003440C0E90012F6
:10388000A94A02F5E4704FF00001A84AC0E900120D
:10389000A54A02F5E87096A2D2E90012C0E900122A
:1038A000A14A0A2182F8E0119F4A02F5F4704FF014
:1038B00000019F4AC0E900129B4A02F5F8704FF0E0
:1038C00000019A4AC0E90012974A02F5FC704FF0D5
:1038D0000001964AC0E90012934A02F5007086A2E0
:1038E000D2E90012C0E90012924A002111709148F9
:1038F000D7E90012C0E902128E48D7E90012C0E9E8
:1039000004128C484FF000014FF00002C0E906128B
:10391000884A102182F8201086484FF00001864A1C
:10392000C0E90A1283484FF00001844AC0E90C1232
:1039300080484FF00001814AC0E90E127D4870A214
:10394000D2E90012C0E910127A4A112182F850100F
:1039500078484FF000017A4AC0E9161275484FF0D6
:103960000001724AC0E9181272484FF000016F4A14
:10397000C0E91A126F4864A2D2E90012C0E91C1211
:103980006C4A122182F880106A484FF00001684AA0
:10399000C0E9221267484FF00001644AC0E92412CE
:1039A00064484FF00001614AC0E9261261484FF0B7
:1039B0000001644AC0E928125E4A012182F8B01071
:1039C0005C484FF00001604AC0E92E1259484FF0A0
:1039D00000014FF00002C0E9301256484CA2D2E973
:1039E0000012C0E93212534A142182F8D010514813
:1039F0004FF00001504AC0E936124E484FF0000126
:103A0000524AC0E938124B484FF00001504AC0E911
:103A10003A12484840A2D2E90012C0E93C12454A95
:103A2000152182F80011434A02F584704FF000011D
:103A3000434AC0E900123F4A02F588704FF0000186
:103A40003A4AC0E900123B4A02F58C704FF000017F
:103A5000364AC0E90012374A02F5907030A2D2E926
:103A60000012C0E90012334A162182F83011314A9F
:103A700002F59C704FF000012D4AC0E900122D4A5A
:103A800002F5A0704FF00001284AC0E90012294A4F
:103A900002F5A4704FF00001244AC0E90012254A43
:103AA00002F5A8704FF000012A4AC0E90012214A2D
:103AB000022182F860111F4A02F5B470D7E90012A2
:103AC000C0E900123B687A6882F00044194A02F5A6
:103AD000B872C2E90034174B03F5BC724FF0000313
:103AE0004FF00004C2E9003436E000BFAFF30080BD
:103AF000000000000064974000000000009C964019
:103B0000000000000088974000000000007097400F
:103B10009A9999999999C9BF00000000009494401E
:103B200000000000002497406019002000805640EB
:103B3000000026404817002000001040008046404A
:103B4000000018400040974000002440000044401E
:103B500000003440000097403B4B182283F880213E
:103B6000394B03F5C4724FF00003384CC2E90034FE
:103B7000354B03F5C8724FF00003354CC2E90034F1
:103B8000314B03F5CC724FF00003314CC2E90034E5
:103B90002D4B03F5D0724FF000032E4CC2E90034D8
:103BA000294B192283F8B021274B03F5DC724FF023
:103BB0000003294CC2E90034234B03F5E0724FF0B7
:103BC0000003264CC2E900341F4B03F5E4724FF0AA
:103BD0000003224CC2E900341B4B03F5E87218A421
:103BE000D4E90034C2E90034174B1A2283F8E021EB
:103BF000154B03F5F4724FF00003194CC2E9003481
:103C0000114B03F5F8724FF00003144CC2E9003475
:103C10000D4B03F5FC724FF00003104CC2E9003469
:103C2000094B03F5007206A4D4E90034C2E900345C
:103C300000BF0837BD46F0BC704700BFAFF300803F
:103C4000000000000070974048170020000010405E
:103C500000804640002098400000184000805640F8
:103C6000000026402DE9F04389B006AF0346FB80F3
:103C7000304BD3E900562F4BD3E900014FF000033E
:103C80004FF040441A46234604F0AEFF03460C466C
:103C9000194622464FF00003274CF8880490CDE9DE
:103CA0000234CDE900122A463346244801F038FA9E
:103CB000204BD3E900564FF000004FF040411D4B20
:103CC000D3E900341A46234604F08CFF03460C4621
:103CD000194622464FF00003174CF8880490CDE9AE
:103CE0000234CDE900122A463346154801F018FA8D
:103CF0004FF00008DFF854904FF000044FF04045BB
:103D00004FF000000C494FF000020E4B04F06AFF28
:103D100002460B46F9880491CDE90223CDE900451E
:103D200042464B46084801F0FBF900BF0C37BD4640
:103D3000BDE8F083B89A000800000440481700204E
:103D4000A81800200000E03F101A002000002440C6
:103D50002DE9B04388B006AF0346FB80384BD3E96A
:103D60000045374BD3E900014FF000024FF04043CC
:103D700004F03AFF02460B46904699464FF0000089
:103D800030494FF00002304B04F02CFF02460B4646
:103D9000F9880491CDE90223CDE9008922462B461A
:103DA0002A4801F0BDF9264BD3E900454FF0000049
:103DB0004FF04041224BD3E9002304F013FF0246A9
:103DC0000B46904699464FF000001E491AA3D3E9CE
:103DD000002304F007FF02460B46F9880491CDE961
:103DE0000223CDE9008922462B46194801F098F9B3
:103DF0004FF00008DFF860904FF000044FF04045AE
:103E00004FF000000F490CA3D3E9002304F0EAFEB1
:103E100002460B46F9880491CDE90223CDE900451D
:103E200042464B460B4801F07BF900BF0837BD46C0
:103E3000BDE8B083AFF300809A9999999999C93FE9
:103E4000B89A0008000004400000F03F601900200C
:103E5000C01A0020F81700200000244080B582B06E
:103E600000AF0346FB800A4B1B78002B0CD1084B9C
:103E700001221A70FB881846FFF7F4FEFB881846EB
:103E8000FFF766FF01F040F900BF0837BD4680BD6F
:103E9000F0160020000000002DE9F04FF7B006AF4B
:103EA00007F16804C4E9000107F16001C1E90023DA
:103EB0002BA4D4E9003407F5D872C2E900344FF0DE
:103EC0000003294C07F5D472C2E900344FF0000218
:103ED000264B07F5F471D1E9000105F0C7FA034656
:103EE000002B06D04FF00003204C07F5F472C2E916
:103EF00000341F4B1B78002B05D0B7F8F031323B54
:103F0000A7F8BE3103E0B7F8F031A7F8BE3107F1EA
:103F100068014FF000024FF00003D1E9000105F005
:103F20007DFA0346002B25D007F160014FF0000217
:103F30004FF00003D1E9000105F070FA0346002BB1
:103F400018D04FF000024FF0000307F5F471D1E9EB
:103F5000000105F063FA0346002B0BD001F07FB897
:103F6000C00A1F00C6481C40000024400080414099
:103F7000F1160020D04A002313704FF000024FF0DA
:103F8000804307F5F471D1E9000105F009F9034612
:103F90000C4607F5F472C2E90034C5A3D3E9002347
:103FA00007F5F471D1E9000104F0D0FF03460C4697
:103FB000184621464FF00002C04B05F0F1F80346C9
:103FC0000C4607F5D072C2E900344FF00002BC4B3A
:103FD00007F5F471D1E9000104F006FE03460C4632
:103FE00018462146B2A3D3E9002304F0AFFF0346ED
:103FF0000C46184621464FF00002B04B05F0D0F8B1
:1040000003460C4607F5CC72C2E9003407F5F47399
:10401000D3E900234FF00000A94904F0E3FD034673
:104020000C4618462146A2A3D3E9002304F08EFFD4
:1040300003460C46184621464FF000029F4B05F000
:10404000AFF803460C4607F5C872C2E900349D4B31
:104050001B78002B40F010849A4A0123137007F557
:10406000CC73D3E9000102F0ADF807F5D473D3E9BE
:10407000002304F06BFF03460C461D46264607F15D
:1040800068014FF000024FF08043D1E9000105F0D4
:1040900087F803460C461A4623462846314604F064
:1040A000A1FD03460C4607F5C472C2E9003407F5CA
:1040B000CC73D3E9000102F0D3F807F5D473D3E948
:1040C000002304F043FF03460C46184621464FF0F8
:1040D00000034FF040441A46234604F085FD034692
:1040E0000C461D46264607F160014FF000024FF0D6
:1040F0008043D1E9000105F053F803460C461A4607
:1041000023462846314604F06FFD03460C4607F56A
:10411000C072C2E900346C4BD3E9063407F5BC72B7
:10412000C2E9003407F5C873D3E9000102F04AF888
:1041300007F5D473D3E9002304F008FF03460C46C7
:104140001D46264607F168014FF000024FF08043FC
:10415000D1E9000105F024F803460C461A4623462F
:104160002846314604F03EFD03460C4607F5B8727A
:10417000C2E90034D7F8A831BB65D7F8AC3183F079
:104180000043FB6507F5C873D3E9000102F068F846
:1041900003460C461A462346D7E9160104F0D6FE1C
:1041A00003460C46184621464FF000034FF04044AA
:1041B0001A46234604F018FD03460C461D462646C3
:1041C00007F160014FF000024FF08043D1E9000198
:1041D00004F0E6FF03460C461A46234628463146BD
:1041E00004F002FD03460C4607F5B472C2E9003440
:1041F000354B03F5BC73D3E9003407F5B072C2E95F
:10420000003407F5D073D3E9000101F0DBFF07F5B7
:10421000D473D3E9002304F099FE03460C461D46EF
:10422000264607F168014FF000024FF08043D1E9C4
:10423000000104F0B5FF03460C461A462346284603
:10424000314604F0D1FC03460C4607F5AC72C2E9D6
:104250000034D7F8A8313B65D7F8AC3183F0004380
:104260007B6507F5D073D3E9000101F0F9FF034640
:104270000C461A462346D7E9140104F067FE0346AC
:104280000C46184621464FF000034FF040441A46B2
:10429000234604F0A9FC03460C461D46264607F1BA
:1042A00060014FF000024FF08043D1E900010DE0C2
:1042B000462C4454FB210940F01600200080664043
:1042C00000804640D00500206019002004F068FFFF
:1042D00003460C461A4623462846314604F084FC21
:1042E00003460C4607F5A872C2E90034CE4BD3E969
:1042F000323407F5A472C2E90034D7F8E831BB6460
:10430000D7F8EC3183F00043FB64C5A3D3E9002365
:10431000D7E9120104F01AFE03460C46184621465E
:104320004FF00002C14B04F03BFF03460C4607F57B
:10433000D072C2E9003407F5F473D3E900234FF0DB
:104340000000BB4904F04EFC03460C4618462146CB
:10435000B3A3D3E9002304F0F9FD03460C46184645
:1043600021464FF00002B14B04F01AFF03460C4601
:1043700007F5CC72C2E900344FF00002AC4B07F5F0
:10438000F471D1E9000104F02FFC03460C461846F5
:104390002146A3A3D3E9002304F0D8FD03460C462D
:1043A000184621464FF00002A04B04F0F9FE0346E8
:1043B0000C4607F5C872C2E9003407F5C873D3E9A3
:1043C000000101F0FFFE07F5D473D3E9002304F0E8
:1043D000BDFD03460C461D46264607F168014FF019
:1043E00000024FF08043D1E9000104F0D9FE0346FA
:1043F0000C461A4623462846314604F0F3FB034692
:104400000C4607F5A072C2E9003407F5C873D3E97A
:10441000000101F025FF07F5D473D3E9002304F070
:1044200095FD03460C46184621464FF000034FF019
:1044300040441A46234604F0D7FB03460C461D466B
:10444000264607F160014FF000024FF08043D1E9AA
:10445000000104F0A5FE03460C461A4623462846F2
:10446000314604F0BFFB03460C4607F59C72C2E9D7
:1044700000346D4BD3E9063407F59872C2E9003475
:1044800007F5CC73D3E9000101F09CFE07F5D47366
:10449000D3E9002304F05AFD03460C461D46264688
:1044A00007F168014FF000024FF08043D1E90001AD
:1044B00004F076FE03460C461A462346284631464B
:1044C00004F090FB03460C4607F59472C2E90034F1
:1044D000D7F8A8313B64D7F8AC3183F000437B6454
:1044E00007F5CC73D3E9000101F0BAFE03460C4690
:1044F0001A462346D7E9100104F028FD03460C466E
:10450000184621464FF000034FF040441A46234618
:1045100004F06AFB03460C4625461C4607F1600181
:104520004FF000024FF08043D1E9000104F038FE63
:1045300002460B462046294604F054FB03460C462F
:1045400007F59072C2E90034374B03F5BC73D3E929
:10455000003407F58C72C2E9003407F5D073D3E953
:10456000000101F02FFE07F5D473D3E9002304F016
:10457000EDFC03460C4625461C4607F168014FF04A
:1045800000024FF08043D1E9000104F009FE024629
:104590000B462046294604F027FB03460C4607F548
:1045A0008872C2E9003407F5D073D3E9000101F045
:1045B00057FE07F5D473D3E9002304F0C7FC034684
:1045C0000C46184621464FF000034FF040441A466F
:1045D000234604F009FB03460C4625461C4607F11A
:1045E00060014FF000024FF08043D1E9000104F078
:1045F000D7FD02460B462046294604F0F3FA03464F
:104600000C4607F58472C2E900340A4BD3E9323410
:1046100007F58072C2E900344FF000000CE000BFE3
:10462000462C4454FB210940481700200080664076
:104630000080464060190020874907F5BC73D3E924
:10464000002304F0D1FA03460C46B7F8F021049297
:10465000CDE9023407F5C073D3E90034CDE9003465
:1046600007F5C473D3E900237C4800F059FD4FF0EF
:104670000000794907F5B073D3E9002304F0B4FAD8
:1046800003460C46B7F8F0210492CDE9023407F551
:10469000B473D3E90034CDE9003407F5B873D3E936
:1046A00000236F4800F03CFD4FF000006A4907F519
:1046B000A473D3E9002304F097FA03460C46B7F835
:1046C000F0210492CDE9023407F5A873D3E9003450
:1046D000CDE9003407F5AC73D3E90023614800F05D
:1046E0001FFD00F011FDB7F8F0315F4AA2FB032374
:1046F000DB089BB21846FBF7D5FDB7F8F03118463A
:10470000FFF7B0FA00F000FDB7F8F0311846FBF7FC
:10471000C9FDB7F8F031049307F59873D3E9003475
:10472000CDE9023407F59C73D3E90034CDE90034B8
:1047300007F5A073D3E900234C4800F0F1FCB7F86B
:10474000F031049307F58C73D3E90034CDE90234DA
:1047500007F59073D3E90034CDE9003407F594737D
:10476000D3E90023424800F0DBFCB7F8F0310493B2
:1047700007F58073D3E90034CDE9023407F584737B
:10478000D3E90034CDE9003407F58873D3E9002379
:10479000384800F0C5FC00F0B7FCB7F8F031324AF9
:1047A000A2FB0323DB089BB21846FBF77BFD4FF00F
:1047B0000003294CBB6384F00043FB63B7F8F0317E
:1047C0000493D7E90E34CDE902344FF000034FF0E3
:1047D0000004CDE900344FF000024FF000031F4801
:1047E00000F0B8FF4FF000031B4C9A4684F0004BDA
:1047F000B7F8F0310493CDE902AB4FF000034FF06E
:104800000004CDE900344FF000024FF000031448DB
:1048100000F0A0FF4FF000030F4C984684F00049D1
:10482000B7F8F0310493CDE902894FF000034FF05F
:104830000004CDE900344FF000024FF000030948B6
:1048400000F088FF00F060FCB7F8BE311846FBF7B7
:1048500029FD00F004BC00BF0000F83F60190020F3
:10486000C01A0020F817002089888888481700207F
:10487000A8180020101A0020CD4B1B78012B40F007
:10488000EE83CB4A0023137007F5C873D3E9000108
:1048900001F098FC07F5D473D3E9002304F056FB2C
:1048A00003460C461D46264607F168014FF00002FC
:1048B0004FF08043D1E9000104F072FC03460C463E
:1048C0001A4623462846314604F08EF903460C4624
:1048D000C7E93E3407F5C873D3E9000101F0C0FC15
:1048E00007F5D473D3E9002304F030FB03460C46EC
:1048F000184621464FF000034FF040441A46234625
:1049000004F072F903460C461D46264607F1600185
:104910004FF000024FF08043D1E9000104F040FC69
:1049200003460C461A4623462846314604F05CF9F5
:1049300003460C46C7E93C349E4BD3E90634C7E92D
:104940003A3407F5CC73D3E9000101F03BFC07F5DD
:10495000D473D3E9002304F0F9FA03460C461D464C
:10496000264607F168014FF000024FF08043D1E97D
:10497000000104F015FC03460C461A46234628465F
:10498000314604F031F903460C46C7E93834D7F80C
:10499000A8313B63D7F8AC3183F000437B6307F564
:1049A000CC73D3E9000101F05BFC03460C461A46C8
:1049B0002346D7E90C0104F0C9FA03460C46184611
:1049C00021464FF000034FF040441A46234604F0BE
:1049D0000BF903460C461D46264607F160014FF0D1
:1049E00000024FF08043D1E9000104F0D9FB0346F7
:1049F0000C461A4623462846314604F0F5F803468D
:104A00000C46C7E936346B4B03F5BC73D3E900346D
:104A1000C7E9343407F5D073D3E9000101F0D2FBC4
:104A200007F5D473D3E9002304F090FA03460C464B
:104A30001D46264607F168014FF000024FF0804303
:104A4000D1E9000104F0ACFB03460C461A462346AC
:104A50002846314604F0C6F803460C46C7E932340E
:104A600007F5D073D3E9000101F0FAFB07F5D47321
:104A7000D3E9002304F06AFA03460C46184621469F
:104A80004FF000034FF040441A46234604F0ACF8C0
:104A900003460C469846A14607F160014FF000021C
:104AA0004FF08043D1E9000104F07AFB03460C4645
:104AB00007F1C0051A4623464046494604F094F8DB
:104AC00003460C46C5E9003407F1B8023A4BD3E976
:104AD0003234C2E90034D7F8E831BB62D7F8EC31A0
:104AE00083F00043FB6230A3D3E90023D7E90A0136
:104AF00004F02CFA03460C46184621464FF00002FB
:104B00002E4B04F04DFB03460C4607F5D072C2E96C
:104B1000003407F5F473D3E900234FF0000028496F
:104B200004F060F803460C46184621461EA3D3E95C
:104B3000002304F00BFA03460C46184621464FF0BA
:104B400000021E4B04F02CFB03460C4607F5CC720A
:104B5000C2E900344FF00002194B07F5F471D1E9B6
:104B6000000104F041F803460C46184621460EA306
:104B7000D3E9002304F0EAF903460C46184621461F
:104B80004FF000020D4B04F00BFB03460C4607F5FB
:104B9000C872C2E9003407F5CC73D3E9000101F013
:104BA00011FB07F5D4730DE0462C4454FB2109405A
:104BB000D0050020481700206019002000806640C2
:104BC00000804640D3E9002304F0C0F903460C46B8
:104BD0009846A14607F168014FF000024FF080436C
:104BE000D1E9000104F0DCFA03460C4607F1B005F8
:104BF0001A4623464046494603F0F6FF03460C4654
:104C0000C5E9003407F5CC73D3E9000101F028FBB6
:104C100007F5D473D3E9002304F098F903460C4652
:104C2000184621464FF000034FF040441A462346F1
:104C300003F0DAFF03460C469846A14607F16001EF
:104C40004FF000024FF08043D1E9000104F0A8FAD0
:104C500003460C4607F1A8051A4623464046494636
:104C600003F0C0FF03460C46C5E9003407F1A0027B
:104C7000BE4BD3E90634C2E9003407F5C873D3E963
:104C8000000101F09FFA07F5D473D3E9002304F083
:104C90005DF903460C469846A14607F168014FF0BE
:104CA00000024FF08043D1E9000104F079FA034695
:104CB0000C4607F198051A4623464046494603F03C
:104CC00093FF03460C46C5E90034D7F8A8313B6290
:104CD000D7F8AC3183F000437B6207F5C873D3E9A2
:104CE000000101F0BDFA03460C461A462346D7E9F7
:104CF000080104F02BF903460C46184621464FF0F4
:104D000000034FF040441A46234603F06DFF03466C
:104D10000C469846A14607F160014FF000024FF0A3
:104D20008043D1E9000104F03BFA03460C4607F149
:104D300090051A4623464046494603F053FF034672
:104D40000C46C5E9003407F18802884B03F5BC73B3
:104D5000D3E90034C2E9003407F5D073D3E9000188
:104D600001F030FA07F5D473D3E9002304F0EEF82C
:104D700003460C469846A14607F168014FF0000231
:104D80004FF08043D1E9000104F00AFA03460C46D3
:104D900007F180051A4623464046494603F022FFA4
:104DA00003460C46C5E90034D7F8A831BB61D7F8F3
:104DB000AC3183F00043FB6107F5D073D3E9000108
:104DC00001F04EFA03460C461A462346D7E906017F
:104DD00004F0BCF803460C46184621464FF0000389
:104DE0004FF040441A46234603F0FEFE03460C46AD
:104DF0009846A14607F160014FF000024FF0804352
:104E0000D1E9000104F0CCF903460C4607F178051E
:104E10001A4623464046494603F0E4FE03460C4644
:104E2000C5E9003407F17002514BD3E93234C2E9CD
:104E300000344FF000004F49D7E93A2303F0D4FE85
:104E400003460C46B7F8F0210492CDE90234D7E9C5
:104E50003C34CDE90034D7E93E23454800F060F901
:104E60004FF000004349D7E9342303F0BDFE034669
:104E70000C46B7F8F0210492CDE90234D7E9363474
:104E8000CDE90034D7E938233B4800F049F94FF029
:104E90000000384907F1B803D3E9002303F0A4FE6A
:104EA00003460C46B7F8F0210492CDE9023407F12D
:104EB000C003D3E90034CDE90034D7E932232F48C9
:104EC00000F02EF900F020F9B7F8F0312C4AA2FBDF
:104ED0000323DB089BB21846FBF7E4F9B7F8F0317F
:104EE0001846FEF735FF00F00FF9B7F8F031184615
:104EF000FBF7D8F907F1B002B7F8F031049307F1E6
:104F0000A003D3E90034CDE9023407F1A803D3E9C3
:104F10000034CDE90034D2E90023144800F000F950
:104F200007F19802B7F8F031049307F18803D3E949
:104F30000034CDE9023407F19003D3E90034CDE920
:104F40000034D2E900230F4800F0EAF807F18002AC
:104F5000B7F8F031049307F17003D3E90034CDE9D9
:104F6000023407F17803D3E900340DE06019002022
:104F7000481700200000F83FA8180020101A002051
:104F800089888888C01A0020CDE90034D2E900233E
:104F9000364800F0C5F800F0B7F8B7F8F031344AF9
:104FA000A2FB0323DB089BB21846FBF77BF94FF00B
:104FB0000003304C3B6184F000437B61B7F8F03173
:104FC0000493D7E90434CDE902344FF000034FF0E5
:104FD0000004CDE900344FF000024FF000032648F2
:104FE00000F0B8FB4FF00003224CBB6084F000439C
:104FF000FB60B7F8F0310493D7E90234CDE902340D
:105000004FF000034FF00004CDE900344FF00002F0
:105010004FF00003194800F09DFB4FF00003154CC2
:105020003B6084F000437B60B7F8F0310493D7E92C
:105030000034CDE902344FF000034FF00004CDE915
:1050400000344FF000024FF000030D4800F082FBE7
:1050500000F05AF8B7F8BE311846FBF723F900BF45
:1050600007F5E277BD46BDE8F08F00BFF8170020D6
:10507000898888880000F83F48170020A818002079
:10508000101A002090B58DB002AF044608461146B4
:105090001A462346FB710346BB800B467B801346B2
:1050A000BB71BB8840F63402934203D940F6340307
:1050B000BB8006E0BB88B3F5617F02D24FF4617319
:1050C000BB80FA79B9887B8807F10C0000930B4606
:1050D0000C49FCF74CFEBB79002B07D007F10C0301
:1050E000002219460020FBF75DFD06E007F10C03E6
:1050F000042219460020FBF755FD00BF2C37BD46A2
:1051000090BD00BFC89A000880B500AF04220349D3
:105110000020FBF747FD00BF80BD00BFD49A000808
:105120002DE9F04F9BB000AFF863C7E90C23FA6B91
:10513000D7E90C34C2E90234FA6BD7E92434C2E966
:105140000434FA6BD7E92634C2E90634FB6BD3E9A1
:105150002201FB6BD3E906341A46234603F042FDD5
:1051600003460C46C7E91834FB6BD3E902014FF044
:1051700000024FF0804301F00BF905460E46FB6B31
:10518000D3E904014FF000024FF0804301F000F931
:1051900003460C461A4623462846314603F024FDB2
:1051A00003460C461846214601F070FAC7E916017D
:1051B0004FF000024FF08043D7E9180101F0E8F802
:1051C00005460E46FB6BD3E90A341A462346D7E957
:1051D000160103F007FD03460C46184621464FF022
:1051E00000024FF0804301F0D3F803460C461A4604
:1051F00023462846314603F0F7FC03460C46184682
:10520000214601F043FAC7E91401FB6BD3E904011D
:10521000FB6BD3E902341A46234603F0C1FF034671
:105220000C461846214600F02BFE4FF00002B04B12
:1052300003F08CFE03460C4618462146AAA3D3E988
:10524000002303F0ADFF03460C4619462246A94B46
:10525000C3E90012FB6B1B78002B0FD1A54BD3E9E0
:1052600000014FF00002A44B03F0BCFC03460C46C7
:10527000194622469F4BC3E9001212E0FB6B1B78D4
:10528000022B0ED19B4BD3E900014FF000029A4B49
:1052900003F0AAFC03460C4619462246954BC3E987
:1052A0000012FB6BD3E90A341A462346D7E91601EC
:1052B00003F098FC03460C4618462146D7E918230C
:1052C00003F06EFF03460C461846214600F0D8FD59
:1052D000C7E91201FB6BD3E916014FF000024FF052
:1052E000804301F055F805460E464FF000024FF09E
:1052F0008043D7E9140101F04BF803460C461A46E7
:1053000023462846314603F06FFC03460C461D46F3
:105310002646FB6BD3E922014FF000024FF0804399
:1053200001F036F803460C461A4623462846314615
:1053300003F058FC03460C461D462646FB6BD3E99A
:10534000160102460B4603F04FFC03460C46184676
:105350002146D7E9142303F0F9FD03460C461A460B
:1053600023462846314603F01BFF03460C461846E9
:10537000214600F0B9FFC7E91001D7E91023D7E9AA
:10538000120103F031FC03460C46184621464FF04B
:105390000002574B03F0DAFD03460C46184621463F
:1053A00051A3D3E9002303F0FBFE03460C461A4643
:1053B00023464FF00000514903F014FC03460C460D
:1053C000194622464E4BC3E90012FB6BD3E922017A
:1053D0004FF000024FF0804300F0DAFF05460E4622
:1053E000FB6BD3E916014FF000024FF0804300F051
:1053F000CFFF03460C461A4623462846314603F0A3
:10540000F3FB03460C461D4626464FF000024FF0C4
:105410008043D7E9140100F0BBFF03460C461A464F
:1054200023462846314603F0DDFB03460C461D4665
:105430002646FB6BD3E9220102460B4603F0D4FB60
:1054400003460C4618462146FB6BD3E916341A4630
:10545000234603F07BFD03460C461A4623462846A6
:10546000314603F09DFE03460C461846214600F0E7
:105470003BFF4FF000021E4B03F068FD03460C4655
:105480001846214618A3D3E9002303F089FE0346FA
:105490000C461A4623464FF00000184903F0A2FBC1
:1054A00003460C4619462246164BC3E90012FB6B15
:1054B000D3E90C34BB6284F00043FB620D4BD3E9AB
:1054C00000341A462346D7E90A0103F0CFFF03460A
:1054D000002B19D0FB6BD3E90C34984684F00049BB
:1054E000044BC3E9008922E0462C4454FB210940C7
:1054F00000806640801B00200080464000805640AF
:1055000058190020781B0020FB6BD3E90E018C4B4F
:10551000D3E900341A46234603F08AFF0346002BE2
:1055200005D0FB6BD3E90E34854AC2E90034FB6B2E
:10553000D3E918343B6284F000437B62814BD3E9AA
:1055400000341A462346D7E9080103F08FFF0346CB
:10555000002B09D0FB6BD3E918349A4684F0004B3A
:10556000784BC3E900AB12E0FB6BD3E91A01754B32
:10557000D3E900341A46234603F05AFF0346002BB2
:1055800005D0FB6BD3E91A346E4AC2E90034FB6BD9
:10559000D3E92434BB6184F00043FB616A4BD3E957
:1055A00000341A462346D7E9060103F05FFF03469D
:1055B000002B0CD0FB6BD3E924343B6184F0004317
:1055C0007B61614BD7E90412C3E9001212E0FB6B67
:1055D000D3E926015C4BD3E900341A46234603F095
:1055E00027FF0346002B05D0FB6BD3E92634564A30
:1055F000C2E90034FB6BD3E91045514BD3E90001FC
:105600004FF00002514B03F0A1FC02460B4610463E
:1056100019464FF000024E4B03F0C2FD02460B4606
:105620002046294603F0E0FA03460C461846214678
:1056300003F064FF03469AB2FB6BA3F84820FB6BB0
:10564000D3E91C563F4BD3E90034BB6084F00043E0
:10565000FB604FF000023D4BD7E9020103F076FCFE
:1056600003460C46184621464FF00002384B03F023
:1056700097FD03460C461A4623462846314603F05A
:10568000B3FA03460C461846214603F037FF03469B
:105690009AB2FB6BA3F87820FB6BD3E928562A4B10
:1056A000D3E900343B6084F000437B604FF000029C
:1056B000264BD7E9000103F049FC03460C46184687
:1056C00021464FF00002224B03F06AFD03460C46D0
:1056D0001A4623462846314603F086FA03460C460E
:1056E0001846214603F00AFF03469AB2FB6BA3F863
:1056F000A820FB6B93F82000FB6BB3F84810B7F8B9
:10570000A0200123FFF7BEFCFB6B93F85000FB6B5E
:10571000B3F87810B7F8A0200123FFF7B3FCFB6BB8
:1057200093F88000FB6BB3F8A810B7F8A020012312
:10573000FFF7A8FC00BF6C37BD46BDE8F08F00BF87
:10574000801B002058190020781B002000C08240D8
:105750000080564090B58BB006AFF860C7E90023D3
:10576000FB68D3E902341A462346D7E9000103F067
:105770003BFA03460C46C7E90034FB68D3E904341E
:105780001A462346D7E9080103F02EFA03460C46D1
:10579000C7E90834FB68D3E906341A462346D7E93B
:1057A0000A0103F021FA03460C46C7E90A343B8E8E
:1057B0000493D7E90A34CDE90234D7E90834CDE9B6
:1057C0000034D7E90023F868FFF7AAFC00BF1437BC
:1057D000BD4690BD80B582B000AF03460A46FB804F
:1057E0001346BB80074B00221A60BA88FB8811461B
:1057F000184600F069F800F08FF800BF0837BD4682
:1058000080BD00BFF416002090B58DB000AF786069
:1058100007F108031846FBF721FD3B69FB627B6833
:10582000002B01D101237B607A68FB6A9A4201D97F
:10583000FB6A7B60FB6A5B00184603F035FF044699
:10584000786803F031FF03461946204604F038F823
:105850000346BB62B86A04F0CFF803467B627B6AFA
:105860001B0C7B847B8C0133184603F021FF03461D
:105870001946B86A04F024F80346FB614FF07E51E4
:10588000F86903F05FFE0346184604F0B5F80346D6
:105890007B837A8B7B8C11461846FFF79BFF00BFFA
:1058A0003437BD4690BD000080B500AF044B0022E8
:1058B0001A600021034800F0ECF800BF80BD00BF73
:1058C000F41600200008004080B586B000AF034603
:1058D0000A46FB801346BB8001210420FBF784FDB0
:1058E00000210C4800F0D5F8BB883B61FB88BB81E8
:1058F0000023BB820023FB8107F10C0319460548F6
:1059000000F03EF80121034800F0A4F800BF18376A
:10591000BD4680BD0008004080B582B000AF0122C6
:105920000121094800F0D4F81E233B7100237B714C
:105930000023BB710123FB713B1D1846FDF754FB8F
:1059400000BF0837BD4680BD0008004080B500AFED
:105950000121094800F0DFF80346002B09D001219E
:10596000054800F001F9054B1B68002B01D0FBF73F
:105970003BFB00BF80BD00BF00080040F4160020C4
:1059800080B485B000AF786039600023FB817B680C
:105990001B88FB817B68284A934213D07B68274A87
:1059A00093420FD07B68B3F1804F0BD07B68244AC1
:1059B000934207D07B68234A934203D07B68224AF4
:1059C000934208D1FB8923F07003FB813B685A881E
:1059D000FB891343FB817B681C4A93420CD07B6894
:1059E0001B4A934208D0FB8923F44073FB813B6838
:1059F0001A89FB891343FB817B68FA891A803B680B
:105A00005A687B68DA623B681A887B681A857B680B
:105A1000094A934203D07B68084A934204D13B6809
:105A20009B7A9AB27B681A867B6801229A8200BFB1
:105A30001437BD4680BC704700000140000401409F
:105A40000004004000080040000C0040001000402E
:105A50000014004080B483B000AF78600B46FB7048
:105A6000FB78002B08D07B681B889BB243F0800337
:105A70009AB27B681A8007E07B681B889BB223F090
:105A800080039AB27B681A8000BF0C37BD4680BC89
:105A9000704780B483B000AF78600B46FB70FB7832
:105AA000002B08D07B681B889BB243F001039AB29D
:105AB0007B681A8007E07B681B889BB223F0010398
:105AC0009AB27B681A8000BF0C37BD4680BC704715
:105AD00080B483B000AF78600B467B8013467B7048
